:020000021000EC
:1040000000400020155A0100515A0100535A010086
:1040100000000000000000000000000000000000A0
:10402000000000000000000000000000555A0100E0
:104030000000000000000000575A0100595A01001A
:104040005B5A01005B5A01005B5A01005B5A010098
:104050005B5A0100000000005B5A0100F94B0100AF
:104060005B5A01005B5A01005B5A01005B5A010078
:104070005B5A01005B5A01005B5A01005B5A010068
:104080005B5A0100057101005B5A01005B5A010097
:10409000517101005B5A0100F55F01005B5A01009C
:1040A0005B5A01005B5A01000000000000000000A4
:1040B0000000000000000000000000000000000000
:1040C00010B5064C2378002B07D10548002802D0F4
:1040D000044800E000BF0121217010BD5C240020D5
:1040E0000000000074AA010008B5084B002B03D0A3
:1040F0000748084900E000BF07480168002903D0CD
:10410000064A002A00D0904708BDC04600000000C3
:1041100074AA010060240020582400200000000040
:10412000164B002B00D1144B9D46402292029A1A46
:10413000924600218B460F461348144A121A06F085
:104140005FFA0F4B002B00D098470E4B002B00D08E
:1041500098470020002104460D4600200C4900220B
:10416000002305F0F3FF06F093F82046294600F0FF
:1041700043FE06F04DF8C046000008000040002055
:1041800000000000000000005C240020302A002015
:1041900031A2010080B500AFBFF34F8F024B034A3D
:1041A000DA60BFF34F8FFEE700ED00E00400FA0590
:1041B00070DF7047181CC04671DF7047181CC0467E
:1041C00072DF7047181CC04673DF7047181CC0466A
:1041D00074DF7047181CC04675DF7047181CC04656
:1041E00076DF7047181CC04677DF7047181CC04642
:1041F00078DF7047181CC04679DF7047181CC0462E
:104200007ADF7047181CC0467BDF7047181CC04619
:104210007CDF7047181CC0467DDF7047181CC04605
:104220007EDF7047181CC0467FDF7047181CC046F1
:1042300080DF7047181CC04681DF7047181CC046DD
:1042400082DF7047181CC04683DF7047181CC046C9
:1042500084DF7047181CC046B0DF7047181CC0468A
:10426000B1DF7047181CC046B2DF7047181CC0464B
:1042700090DF7047181CC04691DF7047181CC0467D
:1042800092DF7047181CC04693DF7047181CC04669
:1042900094DF7047181CC04695DF7047181CC04655
:1042A00096DF7047181CC04697DF7047181CC04641
:1042B00098DF7047181CC046A0DF7047181CC04626
:1042C000A1DF7047181CC046A2DF7047181CC0460B
:1042D000A3DF7047181CC046A4DF7047181CC046F7
:1042E000A5DF7047181CC046A6DF7047181CC046E3
:1042F000A7DF7047181CC046A8DF7047181CC046CF
:10430000A9DF7047181CC046AADF7047181CC046BA
:1043100060DF7047181CC04661DF7047181CC0463C
:1043200062DF7047181CC04663DF7047181CC04628
:1043300064DF7047181CC04665DF7047181CC04614
:1043400066DF7047181CC04620DF7047181CC04647
:1043500021DF7047181CC04622DF7047181CC0467A
:1043600023DF7047181CC04624DF7047181CC04666
:1043700025DF7047181CC04626DF7047181CC04652
:1043800027DF7047181CC04628DF7047181CC0463E
:1043900029DF7047181CC0462ADF7047181CC0462A
:1043A0002BDF7047181CC0462CDF7047181CC04616
:1043B0002DDF7047181CC0462EDF7047181CC04602
:1043C0002FDF7047181CC04632DF7047181CC046EC
:1043D00033DF7047181CC04630DF7047181CC046DA
:1043E00031DF7047181CC04634DF7047181CC046C8
:1043F00035DF7047181CC04636DF7047181CC046B2
:1044000037DF7047181CC04638DF7047181CC0469D
:1044100039DF7047181CC0463ADF7047181CC04689
:104420003BDF7047181CC0463CDF7047181CC04675
:104430003EDF7047181CC0463FDF7047181CC0465F
:1044400040DF7047181CC0463DDF7047181CC0464F
:1044500041DF7047181CC04642DF7047181CC04639
:1044600043DF7047181CC04644DF7047181CC04625
:1044700045DF7047181CC04646DF7047181CC04611
:1044800047DF7047181CC04648DF7047181CC046FD
:1044900049DF7047181CC0464ADF7047181CC046E9
:1044A0004EDF7047181CC0464FDF7047181CC046CF
:1044B00051DF7047181CC04650DF7047181CC046BB
:1044C00052DF7047181CC04610DF7047181CC046EA
:1044D00011DF7047181CC04612DF7047181CC04619
:1044E00013DF7047181CC04680B584B000AFF86079
:1044F000B9607A60FFF74EFEBD4604B080BDC0468D
:1045000080B582B000AF021C3960BB1D1A80BB1D94
:104510001A8805493B68081C111C1A1CFFF7E4FFA8
:10452000BD4602B080BDC046EFBEADDE80B584B0F2
:1045300000AF78600023FB600A4B1B78002B0AD089
:10454000FFF776FF04E03B1C0C33181CFFF778FFE5
:10455000FB68002BF7D0044B01221A60BD4604B063
:1045600080BDC046022500200070004080B586B0A6
:1045700002AF174B0022009200200321052202F017
:10458000EDFD031CFB60FB68BB60BB68002B06D025
:10459000BA68104B101C67211A1CFFF7A5FF0E4AC2
:1045A0000E4B101C01211A1C02F090FE031C7B60B4
:1045B0007B683B603B68002B06D03A68054B101CBB
:1045C0006C211A1CFFF790FFBD4604B080BDC046A9
:1045D0005C250020D0A90100FC2400202D4501000D
:1045E00080B588B000AF3B1D1A780F218A430121A6
:1045F0000A431A703B1D19780F220A4010210A4302
:104600001A703A1D2C4B101C191C0C22FFF700FECF
:10461000031CFB61FB69BB61BB69002B06D0BA6957
:10462000264B101C7A211A1CFFF75EFF244B181C26
:10463000FFF7DEFD031CFB61FB697B617B69002BDF
:1046400006D07A691D4B101C7D211A1CFFF74CFF08
:104650003B1C0833181C0021082205F0D1FF3B1C2D
:10466000083306221A803B1C08331C225A803B1C4C
:10467000083300229A803B1C0833C8225200DA809B
:104680003B1C0833181CFFF7BBFD031CFB61FB69D7
:104690003B613B69002B06D03A69084B101C87210F
:1046A0001A1CFFF721FF28235B42181CFFF79CFD13
:1046B000BD4608B080BDC046D8A90100D0A9010000
:1046C0004103000080B594B000AF3B1C0F330622BD
:1046D0001A703A1D2A4B111C1A1C0823081C111CA5
:1046E0001A1C05F01DFE3B1C1033181C002138223B
:1046F00005F086FF3B1C103302221A703B1C10335E
:1047000001229A703B1C103301229A803B1C10330B
:104710003A1C0F329A603B1C103302221A833B1C56
:1047200010333A1DDA613B1C1033181C002103F0D2
:10473000BBFC031CFB64FB6CBB64BB6C002B06D096
:10474000BA6C104B101CA3211A1CFFF7CDFE0E4BA8
:10475000181C0021142205F053FF0B4B00221A7085
:10476000094B00225A60084B00221A72064B28227D
:104770001A82054BB4225A82BD4614B080BDC04691
:10478000E8A90100D0A901008024002080B58EB0E6
:1047900000AFFB1C01221A703B1C1833181C0021AF
:1047A000142205F02DFF3B1C183300221A603B1C1D
:1047B000183300221A713B1C1833FA1C9A603B1CF8
:1047C00018331A7B0F218A4301210A431A733B1CB9
:1047D0001833197B0F220A4010210A431A733B1C1D
:1047E00018335A7B0F218A435A733B1C1833597B69
:1047F0000F220A405A733B1C18339A7B0F218A43BD
:104800009A733B1C1833997B0F220A409A733B1C06
:104810001833DA7B0F218A4301210A43DA733B1CE8
:104820001833D97B0F220A4010210A43DA733B1C4C
:1048300018331A7C0F218A431A743B1C1833197CD5
:104840000F220A401A74394A3B1C1833101C191CD9
:1048500004F076FB031C7B637B6B3B633B6B002BA1
:1048600006D03A6B324B101CC8211A1CFFF73CFED5
:104870003B1D181C0021142205F0C2FE3B1D5A7B73
:104880000F218A4301210A435A733B1D597B0F2292
:104890000A4010210A435A733B1D9A7B0F218A4319
:1048A00001210A439A733B1D997B0F220A40102174
:1048B0000A439A733B1DDA7B0F218A43DA733B1D4F
:1048C000D97B0F220A40DA733B1D1A7C0F218A43E1
:1048D00001210A431A743B1D197C0F220A40102142
:1048E0000A431A743B1D00221A603B1D01221A71F3
:1048F0003B1D00229A603B1D64221A730D4A3B1D2A
:10490000101C191C04F024FF031C7B637B6BFB62EF
:10491000FB6A002B06D0FA6A054B101CD9211A1C21
:10492000FFF7E2FDBD460EB080BDC04694240020D6
:10493000D0A90100E424002080B500AF104B1E2256
:104940001A800F4B9A7801218A439A700C4B9A78FF
:1049500002218A439A700A4B9A781C218A430C21BF
:104960000A439A70064B9A7820218A439A70044B26
:104970000722DA70024B10221A71BD4680BDC04674
:104980007824002080B500AF0B4AC1239B00012191
:10499000D15007200321FFF7F7FC0720FFF7E0FCC9
:1049A000054A064B0649D150034AA023DB000121EA
:1049B000D150BD4680BDC0460070004004050000D7
:1049C0000A04000080B582B000AF0C4B1B68181CB5
:1049D000A421002202F0F2FC031C7B607B683B6098
:1049E0003B68002B06D03A68054B101CFF211A1CAF
:1049F000FFF77AFDBD4602B080BDC046FC24002012
:104A0000D0A9010080B582B000AF0B4B181CFFF796
:104A1000DBFB031C7B607B683B603B68002B07D0A3
:104A20003968064A064B081C111C1A1CFFF75CFD6E
:104A3000BD4602B080BDC0468024002007010000B2
:104A4000D0A9010080B584B000AF78607B681B7886
:104A5000002B14D10B4B1B88181C3B21FFF7C0FB0C
:104A6000031CFB60FB68BB60BB68002B07D0B96808
:104A7000054A064B081C111C1A1CFFF735FDBD46E4
:104A800004B080BD0420002011010000D0A9010065
:104A900080B582B000AF78607968054A054B081C84
:104AA000111C1A1CFFF720FDBD4602B080BDC04698
:104AB00017010000D0A9010080B58AB000AF3B1DEE
:104AC000181C00211C2205F09BFD3B1D00221A60D2
:104AD0003B1DA02292025A603B1DA02292029A60C6
:104AE0003B1D03221A73114B9A893B1DDA813B1D32
:104AF00000221A743B1D0E4A5A613B1D0D4A9A61F1
:104B00003B1D181C03F0AAFC031C7B627B6A3B6202
:104B10003B6A002B07D0396A074A084B081C111C56
:104B20001A1CFFF7E1FCBD460AB080BD94240020AA
:104B3000454A0100914A01002B010000D0A9010063
:104B400080B586B000AF78607B681B88112B0DD0D4
:104B500002DC102B05D03FE0132B0ED0192B25D0F3
:104B60003AE07B689A88204B1A803AE01E4B01227B
:104B700052421A80FFF746FF33E01B4B1A881B4B4B
:104B8000101C00211A1CFFF74FFB031C7B617B6983
:104B90003B613B69002B21D03969A2235A00144B99
:104BA000081C111C1A1CFFF79FFC17E07B689B79FF
:104BB000002B15D1FFF714FC031C7B617B69FB60A4
:104BC000FB68002B0CD0F9680A4A094B081C111C21
:104BD0001A1CFFF789FC03E0C04602E0C04600E073
:104BE000C046BD4606B080BD0420002078240020C9
:104BF000D0A901004B01000080B584B000AF2F4A5E
:104C000080235B000021D1502C4AA123DB00D35824
:104C10003B602A4B01225A60294B1B78002B01D0A4
:104C2000FFF70AFC3B68181C002100F003F9031C85
:104C3000FB60FB68002B1ED0224B1A68224B1A60C7
:104C4000204B181C02F044FC1E4B1A681E4B1B68BC
:104C5000D31AF0225003191C04F0CAFE031C1A1CBC
:104C60003B1C0A331A80194A3B1C0A331B88101C50
:104C7000191C04F01BFA164B1B78002B0DD03B6857
:104C80009AB2144B1A80134B1B889BB20F4A101C0C
:104C9000191C04F0ABF9031C7B600D4B1B785A1EEA
:104CA0009341DBB201225340DBB21A1C01231340B3
:104CB000DAB2074B1A70BD4604B080BD00700040E8
:104CC000022500205425002058250020942400208F
:104CD000062000200025002080B582B000AF78605B
:104CE0000B4A7B68101C191C04F0ACFB094A7B685A
:104CF000101C191C03F0F6FE7B68181C03F00AFD5B
:104D00007B68181CFFF71CFFBD4602B080BDC04683
:104D1000E42400209424002080B582B000AF7860A5
:104D2000BD4602B080BDC04680B586B000AF204B06
:104D30000820191C5022002301F0DAF8031C7B61C3
:104D40007B693B613B69002B08D03969C5235A0058
:104D5000184B081C111C1A1CFFF7C6FB164B181C1D
:104D600001F020F9031CFB60FB68BB60BB68002BF3
:104D700007D0B968114A0F4B081C111C1A1CFFF709
:104D8000B3FB0F4B181C01F021F9031CFB60FB68FF
:104D90007B607B68002B08D07968C8235A00054BDC
:104DA000081C111C1A1CFFF79FFBBD4606B080BDF6
:104DB00004250020D0A90100D94C01008D0100007C
:104DC000194D010080B582B000AFFFF73DFB031C19
:104DD0007B607B683B603B68002B08D03968CB2345
:104DE0005A00044B081C111C1A1CFFF77DFBBD4622
:104DF00002B080BDD0A9010080B500AF0020012124
:104E000000F018F8FFF790FFFFF7B0FBFFF7BAFDCF
:104E1000FFF7E6FBFFF756FCFFF7B8FCFFF74CFE89
:104E2000FFF78AFDFFF7CEFDFFF7ECFDFFF7CAFFA6
:104E3000FCE7C04690B589B000AF786039600023C8
:104E4000FB613B68002B3FD00023BB610CE0B84BFB
:104E5000BA6992000021D150B64BBA699200642120
:104E6000D150BB690133BB61BB69072BEFDDB24B8E
:104E700000221A60B04B1A68B04B1A60AF4B1A6828
:104E8000AF4B1A60AE4B1A68AE4B1A60AD4B1A6846
:104E9000AD4B1A60AD4B00221A60AC4B1A68AC4B9C
:104EA0001A60AB4B1A68AB4B1A60AA4B1A68AA4B34
:104EB0001A60AA4B96221A600020012100F0ACFB78
:104EC0000020012100F09CFA7B68181C002100F0F2
:104ED000A3FB031CFB60FB68181C002100F090FA88
:104EE000031C3B613B69062B01DC00233B61002373
:104EF0007B613B69002B0AD0954B1B68002B06D1C8
:104F0000974B3A691A60924B14221A602EE03B6963
:104F1000002B10D18E4B1B68002B0CD08C4B1B68C8
:104F20005A1E8B4B1A608A4B1B68002B1ED18C4B70
:104F30001B687B611AE03B69002B17D0884B1B680C
:104F40003A699A4206DD864B3A691A60804B142210
:104F50001A600BE07E4B1B685A1E7D4B1A607C4B1F
:104F60001B68002B02D17E4B1B687B61774B1C6852
:104F70007B68181C002100F065FC011C794BA20025
:104F8000D150724B1B685A1C704B1A606F4B1B68D8
:104F90002E2B02D16D4B00221A606B4B1B68072B26
:104FA0004FDC664B1B685A1C644B1A607B69002BF4
:104FB00002DD624B08221A60674B1B685A1C664B65
:104FC0001A60654B1B68642B31D1634B00221A6059
:104FD0005D4B1A685F4B1968634B9200D1505D4B73
:104FE00000221A60584B1B685A1C574B1A60564BCC
:104FF0001B68082B1BD15C4B181C082100F062FABF
:10500000021C5A4B1A605A4B00221A60594B6422F8
:105010001A60524BA5221A60544B1A68544B1B68F5
:10502000101C191C00F072FA021C534B1A60494BF9
:105030001B687A699A4200DC48E1464B7A691A603B
:1050400044E13E4B1B685A1C3C4B1A607B69002BA9
:1050500000DCCDE03D4B1A6842493A4B081C111C5C
:105060001A1C00F081FA031C002B00D0C0E0424B58
:105070001B687A699A4200DC88E0404B1B68404913
:10508000394A081C111C1A1C05F0ECF9364B7A69D8
:105090001A60354B181C082100F014FA021C334B1F
:1050A0001A60324B1A68324B1B68101C191C00F036
:1050B0002DFA021C304B1A60304B1B6831491D4AD7
:1050C000081C111C1A1C05F0CDF91C4B1B681A1C7E
:1050D000083A184B1A60174B181C082100F0F2F917
:1050E000021C244B1A60234B1B685A10214B1B686F
:1050F000D3181A1C0832194B1A60104B08221A6078
:105100000D4B00221A600F4B1A680D4B1A600D4BA5
:1051100000221A602423FB611B4B00221A601A4BE9
:105120001A680C4B1A600B4B1A680B4B1A605FE045
:10513000AC270020CC270020EC270020F0270020FF
:10514000F4270020F8270020FC2700202C2A00202C
:10515000002800200428002008280020102000201B
:105160000C2800207429002010280020302800205E
:1051700034280020382800203C280020F0A9010015
:1051800014280020D027002040280020864B1B68D0
:105190008649874A081C111C1A1C05F063F9844BC8
:1051A0007A691A60824B181C082100F08BF9021CE6
:1051B000804B1A60804B1A687E4B1B68101C191CB0
:1051C00000F0A4F9021C7D4B1A607D4B1B687A69C4
:1051D0009A420DDD7B4B1B68083B232B08DD784B87
:1051E0007A691A60774B1B681A1C083A764B1A606A
:1051F000744B1A68754B1B689A4267DD6F4B1B68CE
:105200005A106F4B1B689A4260DA674B1B687049F3
:10521000704A081C111C1A1C05F024F9684B1A6806
:105220006C4B1A606B4B181C082100F04BF9021CE8
:10523000614B1A60604B1A685E4B1B68101C191C8E
:1052400000F064F9021C5D4B1A60574B1B68624901
:10525000624A081C111C1A1C05F004F95A4B1A6802
:105260005E4B1A605D4B181C082100F02BF9021CE4
:105270005B4B1A605A4B1B685A10594B1B68D3186A
:105280001A1C0832514B1A604E4B1A684E4B1B6861
:10529000D21A4C4B1A604B4B1B68FB61FB691C33E9
:1052A000FB61474B00221A604E4B1A684E4B1A6046
:1052B0004C4B00221A604D4B00221A604B4B1A686F
:1052C0004B4B1A604A4B1A684A4B1A604A4B1B6890
:1052D000082B63D1474B1B685A1C464B1A60454B41
:1052E0001B68642B52D1434B00221A603F4B1A6853
:1052F0003F4B1968414B9200D1503D4B00221A6040
:105300003A4B1B685A1C394B1A60384B1B68082BE8
:105310003CD10023BB610FE0384BBA699200D158F1
:105320002C4BBA699200D150214BBA6992000021EE
:10533000D150BB690133BB61BB69072BECDD2F4B3F
:10534000181C082100F0BEF8021C1B4B1A60194BF8
:1053500000221A60224B64221A601C4BA5221A609C
:10536000154B1A68134B1B68101C191C00F0CEF863
:10537000021C124B1A601D4B00221A601B4B1A684C
:105380001B4B1A601A4B1A681A4B1A60184B1B6891
:105390007A699A4202DD164B7A691A60FB69181C19
:1053A000BD4609B090BDC046F0A90100B02700205D
:1053B000AC27002034280020302800203C28002082
:1053C000EC270020F0270020442800201020002097
:1053D0001428002010280020D0270020CC270020EF
:1053E00038280020F8270020F4270020402800203B
:1053F0000428002008280020FC270020482800203E
:1054000080B584B000AF786039600023FB603B68F2
:10541000002B06D0274B00221A60264B1A68264B19
:105420001A60244B1B68002B04DD224B1B685A1C9E
:10543000204B1A60214B1B687A689A420FDD1E4B85
:105440001B687A689A420ADD1B4B7A681A601A4B0D
:105450001B68022B26DD174B01221A6022E0164B37
:105460001B685A107B689A420CDD134B1B68FB606B
:10547000114B00221A600F4B00221A60104B0022C1
:105480001A600FE00B4B1B680A2B0BDD0A4B1B68E5
:10549000FB60094B00221A60064B00221A60084B81
:1054A00003221A60054B7A681A60FB68181CBD4617
:1054B00004B080BDA0270020A4270020A82700203A
:1054C0009C27002080B584B000AF7860396000234D
:1054D000BB600023FB600AE0BB689B007A68D318BE
:1054E0001B68FA68D318FB60BB680133BB60BA68FD
:1054F0003B689A42F0DBF868396804F0C7FA031C8D
:10550000FB60FB68181CBD4604B080BD90B589B037
:1055100000AF786039607A683B68D31AFB61F8693C
:1055200004F0BCFD031C0C1C3B617C610D4B5C68F2
:105530001B68386979691A1C231C04F009FB031CD9
:105540000C1C3B617C613869796904F073FD031CB4
:10555000FB613A68FB69D318FB60FB68181CBD4609
:1055600009B090BD0820002080B58AB000AFF86077
:10557000B9607A6000233B623B6A7B620023BB61B7
:10558000BB69FB6100237B6121E0BB689B00FA687B
:10559000D3181B683B613A697B6A9A4204DD7B69D8
:1055A000FB613B697B6207E03A693B6A9A4203DA36
:1055B0007B69BB613B693B62BB680133BB60BB6815
:1055C0002E2B01D10023BB607B6901337B617B699A
:1055D000152BDADD7B687A6A1A603B6A5B423B62B4
:1055E0003B6ADA107B6A9A4211DA7B6ADA103B6A0C
:1055F0009A420CDAFA69BB69D31A1A1C0E3206DB1E
:10560000FA69BB69D31A0E2B01DC002300E00123E9
:10561000181CBD460AB080BD80B582B000AF78606E
:1056200039603B68002B13D00020012100F0A8F85E
:105630000020012100F032F80020012100F08AF959
:105640000020012100F0FEF80020012100F03EF9C9
:105650007B68181C002100F021F8031C7B607B682C
:10566000181C002100F08CF8031C7B607B68181C60
:10567000002100F02BF9031C7B607B68DA179B1874
:1056800053407B607B68181C002100F063F9031C09
:105690007B607B68181CBD4602B080BD80B586B0BB
:1056A00000AF786039603B68002B1CD0304B002283
:1056B0001A600AE02E4B1A682E4B92000021D1503E
:1056C0002B4B1B685A1C2A4B1A60294B1B68052B55
:1056D000F0DD294B00221A60274B1A68274B1A600D
:1056E000234B00221A60224B1B68033B7B617B69C2
:1056F000002B02DA7B6906337B61204B1B685A0062
:105700001D4B1B68D21A7B68D2181A4B7969890025
:10571000CB585B00D21A164B1968164B8900CB5830
:10572000D3183B61154B1A68134B1A60134B3A6937
:105730001A603B69181C092104F0A8F9031CFB60DE
:105740000B4B1A680B4B92007968D150084B1B68C1
:105750005A1C074B1A60064B1B68062B02D1044BE0
:1057600000221A60FB68181CBD4606B080BDC0460A
:10577000DC280020E0280020F8280020FC28002059
:1057800090B585B000AF786039603B68002B18D0C9
:10579000294B00221A600AE0274B1A68274B920017
:1057A0000021D150244B1B685A1C234B1A60224BFA
:1057B0001B680C2BF0DD204B00221A60204B0022CE
:1057C0001A601D4B1A681D4B9200D3587A68D21A82
:1057D0001B4B1B68D2181A4B1A60174B1B68063BF1
:1057E000FB60FB68002B02DAFB680D33FB60134B98
:1057F000FA689200D458124B1B68181C0D2104F053
:1058000045F9031CE31ABB600B4B1A680B4B920063
:105810007968D150084B1B685A1C074B1A60064B1D
:105820001B680D2B02D1044B00221A60BB68181CA8
:10583000BD4605B090BDC046A0280020A428002089
:10584000D828002080B584B000AF786039603B680C
:10585000002B17D01B4B00221A600AE0194B1A6864
:10586000194B92000021D150164B1B685A1C154B46
:105870001A60144B1B68002BF0DD124B00221A60DB
:1058800000231AE00F4B1A680F4B9200D3587A6826
:10589000D31AFB600B4B1A680B4B92007968D150FE
:1058A000084B1B685A1C074B1A60064B1B68012BE0
:1058B00002D1044B00221A60FB68181CBD4604B0DC
:1058C00080BDC046982800209C28002080B584B068
:1058D00000AF786039603B68002B17D01B4B00226B
:1058E0001A600AE0194B1A68194B92000021D15036
:1058F000164B1B685A1C154B1A60144B1B68002B67
:10590000F0DD124B00221A6000231AE00F4B1A68D8
:105910000F4B9200D3587A68D31AFB600B4B1A686E
:105920000B4B92007968D150084B1B685A1C074BEF
:105930001A60064B1B68012B02D1044B00221A602F
:10594000FB68181CBD4604B080BDC04690280020EE
:105950009428002080B584B000AF786039603B683F
:10596000002B18D0274B00221A600AE0254B1A683A
:10597000254B92000021D150224B1B685A1C214B11
:105980001A60204B1B68072BF0DD204B00221A60A9
:105990001C4B00221A601D4B1A687B68D2181B4BE7
:1059A0001A601A4B1A68174B1968174B8900CB58A5
:1059B000D21A164B1A60134B1A68134B920079686F
:1059C000D150104B1B685A1C0E4B1A600D4B1B68B4
:1059D000082B02D10B4B00221A600C4B1A680C4B9F
:1059E0009A4203DDFA23DB01FB6006E0074B1B68EC
:1059F000002B00DA0733DB10FB60FB68181CBD4688
:105A000004B080BD682800206C2800208C2800206D
:105A100007E803000848026803210A4302600749B7
:105A2000074A084B9B1A03DD043BC858D050FBDCE7
:105A300005488047054800472405004080AA01002A
:105A4000002000205C24002055600100214101005D
:105A5000FEE7FEE7FEE7FEE7FEE7FEE720DF704732
:105A6000181CC04621DF7047181CC04622DF704753
:105A7000181CC04623DF7047181CC04624DF70473F
:105A8000181CC04625DF7047181CC04626DF70472B
:105A9000181CC04627DF7047181CC04628DF704717
:105AA000181CC04629DF7047181CC0462ADF704703
:105AB000181CC0462BDF7047181CC0462CDF7047EF
:105AC000181CC0462DDF7047181CC0462EDF7047DB
:105AD000181CC0462FDF7047181CC04632DF7047C5
:105AE000181CC04633DF7047181CC04630DF7047B3
:105AF000181CC04631DF7047181CC04634DF7047A1
:105B0000181CC04635DF7047181CC04636DF70478A
:105B1000181CC04637DF7047181CC04638DF704776
:105B2000181CC04639DF7047181CC0463ADF704762
:105B3000181CC0463BDF7047181CC0463CDF70474E
:105B4000181CC0463EDF7047181CC0463FDF704738
:105B5000181CC04640DF7047181CC0463DDF704728
:105B6000181CC04641DF7047181CC04642DF704712
:105B7000181CC04643DF7047181CC04644DF7047FE
:105B8000181CC04645DF7047181CC04646DF7047EA
:105B9000181CC04647DF7047181CC04648DF7047D6
:105BA000181CC04649DF7047181CC0464ADF7047C2
:105BB000181CC0464EDF7047181CC0464FDF7047A8
:105BC000181CC04651DF7047181CC04650DF704794
:105BD000181CC04652DF7047181CC04610DF7047C3
:105BE000181CC04611DF7047181CC04612DF7047F2
:105BF000181CC04613DF7047181CC04680B582B021
:105C000000AF78607A68032313405A425341DBB2F5
:105C1000181CBD4602B080BD70DF7047181CC0461E
:105C200071DF7047181CC04672DF7047181CC046F1
:105C300073DF7047181CC04674DF7047181CC046DD
:105C400075DF7047181CC04676DF7047181CC046C9
:105C500077DF7047181CC04678DF7047181CC046B5
:105C600079DF7047181CC0467ADF7047181CC046A1
:105C70007BDF7047181CC0467CDF7047181CC0468D
:105C80007DDF7047181CC0467EDF7047181CC04679
:105C90007FDF7047181CC04680DF7047181CC04665
:105CA00081DF7047181CC04682DF7047181CC04651
:105CB00083DF7047181CC04684DF7047181CC0463D
:105CC000B0DF7047181CC046B1DF7047181CC046D3
:105CD000B2DF7047181CC04690DF7047181CC046E2
:105CE00091DF7047181CC04692DF7047181CC046F1
:105CF00093DF7047181CC04694DF7047181CC046DD
:105D000095DF7047181CC04696DF7047181CC046C8
:105D100097DF7047181CC04698DF7047181CC046B4
:105D2000A0DF7047181CC046A1DF7047181CC04692
:105D3000A2DF7047181CC046A3DF7047181CC0467E
:105D4000A4DF7047181CC046A5DF7047181CC0466A
:105D5000A6DF7047181CC046A7DF7047181CC04656
:105D6000A8DF7047181CC046A9DF7047181CC04642
:105D7000AADF7047181CC04660DF7047181CC04679
:105D800061DF7047181CC04662DF7047181CC046B0
:105D900063DF7047181CC04664DF7047181CC0469C
:105DA00065DF7047181CC04666DF7047181CC04688
:105DB00080B584B000AFF8607A603B1C0A330A1CDF
:105DC0001A803B1C0A331A887B68101C191CFEF7CA
:105DD00097FBBD4604B080BD80B584B000AF3E4B9C
:105DE0001B78DBB201225340DBB2002B00D06EE007
:105DF0003A4B1A683B1C0F3351424A411A70384BD8
:105E00001A683B1C0E3351424A411A7000E0C046EA
:105E10003B1C0F331B7801225340DBB2002B1DD0FB
:105E20003B1D181CFFF7C6FE031CBB60BB68052B9F
:105E300004D13B1C0F3301221A700FE0BB68002B0A
:105E400007D0BA68274B101C69211A1CFEF74CFBBF
:105E500004E0224B1B687A68101C98473B1C0E33E9
:105E60001B7801225340DBB2002B25D01E4B1A8831
:105E7000BB1C1A801D4B1A68BB1C101C191CFFF799
:105E80007BFF031CBB60BB68052B04D13B1C0E339E
:105E900001221A7010E0BB68002B07D0BA68114BC2
:105EA000101C80211A1CFEF71FFB05E00C4B1A6822
:105EB0000E4B1B68181C90473B1C0F331B78002BA4
:105EC000A5D03B1C0E331B78002BA0D000E0C046B1
:105ED000BD4604B080BDC0460A290020102900201C
:105EE0000C290020F4A90100082900200429002021
:105EF00080B586B000AFF860B9603B60BB1D1A800A
:105F0000BB68002B01D1072329E0BB68181CFFF7F1
:105F100075FE031C01225340DBB2002B01D0072386
:105F20001DE0114BBA681A60104BBA1D12881A8016
:105F30000F4B3A681A60FA680E4B101C191CFFF7D9
:105F40004DFE031C7B617B69002B01D07B6906E061
:105F5000094B01221A701620FFF78CFD031C181C38
:105F6000BD4606B080BDC046042900200829002097
:105F700000290020B15D01000A29002080B582B00F
:105F800000AFFFF72FFE031C7B607B685A1E934116
:105F9000DAB2034B1A707B68181CBD4602B080BD94
:105FA0000A29002080B582B000AF78607B68002BA2
:105FB00001D10E2303E0044B7A681A600023181CF9
:105FC000BD4602B080BDC0460C29002080B582B01D
:105FD00000AF78607B68002B01D10E2303E0044BF7
:105FE0007A681A600023181CBD4602B080BDC04606
:105FF0001029002080B582B000AF0E4B1B68002B2B
:1060000013D00C4B1B689847031C7B607B683B607C
:106010003B68002B0BD0396899235A00064B081CAB
:10602000111C1A1CFEF760FA01E0FFF7D5FEBD4611
:1060300002B080BD00290020F4A9010080B500AFA6
:10604000024B034A1A60BD4680BDC046182000209E
:106050000024F40080B500AF00F01EF8031C002BF4
:1060600006D00A4B0A4A1A600A4B802212021A60B2
:1060700000F052F8031C002B05D08023DA05C12361
:10608000DB000121D150BD4680BDC0460405004063
:10609000DFFF07C0186C004080B500AF1A4B1A68CC
:1060A000FF231340012B2AD1184B1A680F231340EA
:1060B00025D1174B1A68F023134006D1154B1A68E7
:1060C000F023134001D101231AE0114B1A68F02389
:1060D0001340102B06D10F4B1A68F023134001D147
:1060E00001230DE00A4B1A68F0231340302B06D130
:1060F000084B1A68F023134001D1012300E000236C
:10610000181CBD4680BDC046E00F00F0E40F00F053
:10611000E80F00F0EC0F00F080B500AF0D4B1A68EF
:10612000FF231340012B11D10B4B1A680F2313408F
:106130000CD10A4B1A68F0231340402B06D1084BB0
:106140001A68F023134001D1012300E00023181C3A
:10615000BD4680BDE00F00F0E40F00F0E80F00F056
:10616000EC0F00F080B582B000AF021CFB1D1A706E
:10617000064BFA1D1278111C1F220A400121081C2F
:106180009040021C1A60BD4602B080BD00E100E0F4
:1061900080B582B000AF021CFB1D1A70074AFB1DC0
:1061A0001B78191C1F230B400121081C9840031C5D
:1061B000191C8023D150BD4602B080BD00E100E033
:1061C00080B582B000AF021CFB1D1A70084AFB1D8F
:1061D0001B78191C1F230B400121081C9840031C2D
:1061E000191C80235B00D150BD4602B080BDC04663
:1061F00000E100E080B582B000AF021CFB1D1A7008
:10620000084AFB1D1B78191C1F230B400121081C89
:106210009840031C191CC0235B00D150BD4602B03E
:1062200080BDC04600E100E0B0B582B000AF021C06
:106230003960FB1D1A70FB1D1B787F2B32D930494A
:10624000FB1D1B781A1C0F231340083B98082C4A8F
:10625000FB1D1B781C1C0F232340083B9B080633A7
:106260009B00D3185B68FA1D1278141C032222408D
:10627000D200FF24251C95402A1CD2431A403B68BB
:106280009C01FF231C40FB1D1B781D1C03232B407E
:10629000DB00251C9D402B1C1A43831D9B00CB1843
:1062A0005A6029E0174BFA1D127852B2920815492C
:1062B000F81D007840B28008C03080004158F81DB9
:1062C0000078041C03202040C000FF24251C8540CA
:1062D000281CC043084039688C01FF210C40F91D7F
:1062E00009780D1C03212940C900251C8D40291C5B
:1062F0000143C0329200D150BD4602B0B0BDC0468D
:1063000000ED00E000E100E080B582B000AF021CCB
:10631000FB1D1A70FB1D1B787F2B16D9164AFB1D1F
:106320001B78191C0F230B40083B9B0806339B006E
:10633000D3185A68FB1D1B78191C03230B40DB0084
:10634000DA40FF2313409B0911E00C4BFA1D127831
:1063500052B29208C0329200D258FB1D1B78191C11
:1063600003230B40DB00DA40FF2313409B09181C7A
:10637000BD4602B080BDC04600ED00E000E100E097
:1063800080B582B000AF0C4B5B68DB05DB0D7B603A
:106390007B68002B0BD07B68103B3B603B68DBB21B
:1063A0005BB2181CFFF7B0FF031CDBB200E0042354
:1063B000181CBD4602B080BD00ED00E080B582B083
:1063C00000AF78607A68032313405A425341DBB22E
:1063D000181CBD4602B080BD20DF7047181CC046A7
:1063E00021DF7047181CC04622DF7047181CC046CA
:1063F00023DF7047181CC04624DF7047181CC046B6
:1064000025DF7047181CC04626DF7047181CC046A1
:1064100027DF7047181CC04628DF7047181CC0468D
:1064200029DF7047181CC0462ADF7047181CC04679
:106430002BDF7047181CC0462CDF7047181CC04665
:106440002DDF7047181CC0462EDF7047181CC04651
:106450002FDF7047181CC04632DF7047181CC0463B
:1064600033DF7047181CC04630DF7047181CC04629
:1064700031DF7047181CC04634DF7047181CC04617
:1064800035DF7047181CC04636DF7047181CC04601
:1064900037DF7047181CC04638DF7047181CC046ED
:1064A00039DF7047181CC0463ADF7047181CC046D9
:1064B0003BDF7047181CC0463CDF7047181CC046C5
:1064C0003EDF7047181CC0463FDF7047181CC046AF
:1064D00040DF7047181CC0463DDF7047181CC0469F
:1064E00041DF7047181CC04642DF7047181CC04689
:1064F00043DF7047181CC04644DF7047181CC04675
:1065000045DF7047181CC04646DF7047181CC04660
:1065100047DF7047181CC04648DF7047181CC0464C
:1065200049DF7047181CC0464ADF7047181CC04638
:106530004EDF7047181CC0464FDF7047181CC0461E
:1065400051DF7047181CC04650DF7047181CC0460A
:1065500052DF7047181CC04680B582B000AF78602B
:10656000C046C046C046C046C046C046C046C046FB
:10657000C046C046C046C046C046C0467B68013BD8
:106580007B60002BECD1BD4602B080BD80B582B0EF
:1065900000AF7860054AA123DB007968D150112053
:1065A0000321FFF741FEBD4602B080BD001001404F
:1065B00080B500AF0C4AD1239B0080214902D15005
:1065C000094AC1239B0080214902D1501120FFF7C5
:1065D00011FE1120FFF7C6FD034B01221A602F2088
:1065E000FFF7BAFFBD4680BD0010014080B500AF87
:1065F0001120FFF7CDFD0A4AD2239B0080214902DA
:10660000D150074AC2239B0080214902D150044B3C
:1066100001225A602F20FFF79FFFBD4680BDC04674
:106620000010014080B500AF024A034BD358181C3C
:10663000BD4680BD001001400405000080B582B059
:1066400000AF786039607A683B68D31A1B021B0A76
:10665000181CBD4602B080BD80B582B000AF786026
:10666000034AA823DB007968D150BD4602B080BD43
:106670000010014080B586B000AF78604C4B1968BF
:106680007A68131CDB009B189B00CB18BB60494B3E
:106690001B68013303D1474B7A681A6084E0BB68FA
:1066A0005968434B1868434B1A68131CDB009B184E
:1066B0009B00C3185B6899421ED83D4B19683D4B3F
:1066C0001A68131CDB009B189B00CA18384B18680B
:1066D000384B19680B1CDB005B189B00C31859680A
:1066E000BB685B68CB1A5360324B1A68BB681A628E
:1066F000304B7A681A6057E0BB685B68FB602D4BD3
:106700001B687B612B4B1B683B6117E0284B1968AA
:106710003A69131CDB009B189B00CB185B68FA6876
:10672000D31AFB603B697B61214B19683A69131CE2
:10673000DB009B189B00CB181B6A3B613B69013354
:106740000BD01B4B19683A69131CDB009B189B008C
:10675000CB185A68FB689A42D8D33B69013313D0EF
:10676000134B19683A69131CDB009B189B00CA186D
:106770000F4B186839690B1CDB005B189B00C318B2
:106780005968FB68CB1A5360BB68FA685A60BB68EB
:106790003A691A62064B19687A69131CDB009B1868
:1067A0009B00CB187A681A62BD4606B080BDC04611
:1067B000182900202429002080B586B000AF786019
:1067C000374B1B687B617B693B610FE03A697B68F3
:1067D0009A420FD03B697B61324B19683A69131CAE
:1067E000DB009B189B00CB181B6A3B613B690133A4
:1067F000ECD100E0C0463B6901334DD07A693B697A
:106800009A420BD1274B1968254B1A68131CDB00E1
:106810009B189B00CB181A6A214B1A60214B1968F0
:106820003A69131CDB009B189B00CB185B68FB606C
:106830001C4B19687A69131CDB009B189B00CA1853
:10684000184B186839690B1CDB005B189B00C318D8
:106850001B6A1362134B19687A69131CDB009B18BF
:106860009B00CB181B6A3B613B69013315D00D4B74
:1068700019683A69131CDB009B189B00CA18094B66
:10688000186839690B1CDB005B189B00C31859683A
:10689000FB68CB18536000E0C046BD4606B080BD23
:1068A000242900201829002080B500AF1120FFF70F
:1068B00087FCBD4680BDC04680B500AF1420FFF701
:1068C0007FFCBD4680BDC04680B584B000AF786017
:1068D000134B1B68002B19D0114B1A687B68996900
:1068E0007B68DB69081C191C9047031CFB60FB6874
:1068F000BB60BB68002B0FD0B968AA235A00094BB4
:10690000081C111C1A1CFDF7EFFD05E07B689A6955
:106910007B68DB69181C9047BD4604B080BDC0464B
:10692000382900200CAA010080B584B000AF2C4BA0
:106930001B68013350D000237B60FFF773FE021CFD
:10694000284B1B68101C191CFFF778FE031CBB604A
:10695000234B1B68FB601EE0234B1968FA68131C6D
:10696000DB009B189B00CB183B603B685A68BB68F8
:106970009A4214D83B685B68BA68D31ABB603B681C
:106980005B687A68D3187B603B681B6AFB603B6876
:10699000181CFFF799FFFB680133DDD100E0C0460A
:1069A000124B1A78124B1B789A420CD1104B1B7861
:1069B0000133DAB20E4B1A700D4B1B78022B02D149
:1069C0000B4B00221A700A4B1B781A1C094B9200C1
:1069D0007968D150FFF770FFBD4604B080BDC04656
:1069E00024290020282900201829002034290020EB
:1069F000352900202C29002080B582B000AF7860B6
:106A0000184B1A78184B1B789A4223D0154B1B78D9
:106A10000133DAB2134B1A70124B1B78022B02D1DE
:106A2000104B00221A700F4B1B781A1C0F4B920050
:106A3000D2587B681A607B681A680D4B1B68D218A5
:106A40000B4B1A600A4B1B681B021A0A084B1A6090
:106A5000012303E07B6800221A600023181CBD4656
:106A600002B080BD34290020352900202C290020C7
:106A70002829002080B586B000AF464B1B683B61DB
:106A80003B1C1733444A12781A7069E0434B1A686A
:106A90003B1C17331B78DB00D318FB603B1C163301
:106AA000FA6812781A7054E0FB6859683B1C163378
:106AB0001A78131C5B009B18DB00CB18BB603B1CD7
:106AC00016333A1C1632127801321A70FB689B7822
:106AD0003A1C163212789A4203D13B1C163300221C
:106AE0001A70BB681B78022B02D0032B29D02EE032
:106AF0002B4B1968BB685A68131CDB009B189B0062
:106B0000CB187B607B681B7D002B21D0BB685B684A
:106B1000181CFFF751FE7B6800221A7518E0204B05
:106B200019681C4B1A68131CDB009B189B00CB18C0
:106B30003B603B6800221A753B681A6A154B1A6065
:106B400000E0C046134B1B680133E8D101E000E0D0
:106B5000C046FB685B783A1C163212789A42A3D181
:106B60003B1C17331B785A1E9341DBB23A1C173279
:106B7000391C1731097801391170002B86D1054B6A
:106B80001A683B69D31A5A1E9341DBB2181CBD46E2
:106B900006B080BD242900201C29002020290020C7
:106BA0001829002080B588B000AFF860B9607A601D
:106BB0000023FB6142E0254B1968254B1A68131C22
:106BC000DB009B189B00CB18BB61BB695A68FB6854
:106BD0009A4206D9BB695A68FB68D21ABB695A60E7
:106BE00030E0BB695B68FA68D31AFB60BB695B681D
:106BF000FA69D318FB61BB6900225A60BB690022A5
:106C00001A75134B1B687B61BB691A6A104B1A60BB
:106C1000BB691B69002B11D0BA68FB69D3181B0232
:106C20001A0ABB699A60BB691A69BB69DA607B683A
:106C30001A68BB691A627B687A691A60044B1B6820
:106C40000133B8D1BD4608B080BDC0461829002028
:106C50002429002080B58AB000AF7860664B1B689D
:106C6000BB613B1C2733654A12781A70A8E0644B5D
:106C70001A683B1C27331B78DB00D3187B6194E038
:106C80007B6801330ED07B683B625E4B19683A6AC1
:106C9000131CDB009B189B00CB18FB61FB691B6A74
:106CA0007B603DE07B6959687B691B781A1C131C6B
:106CB0005B009B18DB00CB183B617B691B780133C1
:106CC000DAB27B691A707B691A787B699B789A4281
:106CD00002D17B6900221A703B695B683B62494BB9
:106CE00019683A6A131CDB009B189B00CB18FB61E8
:106CF0003B691B78012B57D1FB691B7D002B53D1BE
:106D00003B699A68FB699A603B69DA68FB69DA60FB
:106D10003B691A69FB691A613B695A69FB69DA6167
:106D2000FB699A68384B1B68D31A1B021A0A374B47
:106D30009A420ED8FB699A68334B1B68101C191CC9
:106D4000FFF77CFC021CFB69DB68D218FB695A6008
:106D500018E02D4B1A68FB699B68101C191CFFF783
:106D60006DFC031CFB60FB69DA68FB689A4206D97C
:106D7000FB69DA68FB68D21AFB695A6002E0FB69BA
:106D800000225A60FB6900229A60FB690022DA60E7
:106D9000FB6901221A75FB69012252421A623B6AA1
:106DA000181CFFF767FC00E0C0467B68013300D089
:106DB00066E77B691A787B695B789A4200D05FE767
:106DC0003B1C27331B785A1E9341DBB23A1C2732F7
:106DD000391C2731097801391170002B00D046E7A2
:106DE000054B1A68BB69D31A5A1E9341DBB2181CB3
:106DF000BD460AB080BDC046242900201C290020C1
:106E0000202900201829002028290020FEFF7F00CB
:106E100090B589B000AF7860284B1B68013347D02C
:106E2000274B1968254B1A68131CDB009B189B0025
:106E3000CB185B68FB61FFF7F5FB031CBB61214BC3
:106E40001B687B61BA697B69101C191CFFF7F6FB94
:106E5000031C03333B617B68013301D1FFF7A8FBBF
:106E6000FA693B69934200D2131C7A69D3187B619B
:106E70007B691B021B0A7B617B69181CFFF7ECFB1B
:106E8000FFF7D0FB031CFB60FA68BB69101C191CE0
:106E9000FFF7D4FB031CDC1C7A69BB69101C191CAE
:106EA000FFF7CCFB031C9C4204D9FFF7FDFC01E07B
:106EB000FFF79CFBBD4609B090BDC04624290020C9
:106EC000182900202829002090B587B000AF0123A1
:106ED0005B427B601D4B1B683B611D4B1B68FB606D
:106EE0003C1C0B343B1C181CFFF786FD031C237055
:106EF0003C1C1734FFF7BEFD031C23703B1C0B33F7
:106F00001B78002B0BD039683A693B1D081C111CFB
:106F10001A1CFFF747FE3B1C173301221A707B68CF
:106F2000181CFFF797FE031C002B03D03B1C1733E4
:106F300001221A703B1C17331B78002B03D0FB680F
:106F4000181CFFF765FFBD4607B090BD282900203B
:106F50002429002080B582B000AF786039603B689A
:106F6000DAB27B685A70BD4602B080BD80B584B08D
:106F700000AF786039607B685B780133FB607B68C9
:106F80009B781A1CFB689A4201D10023FB607B6846
:106F90001B781A1CFB689A4201D100230EE03B6863
:106FA000FA681A607B6859687B685B781A1C131C46
:106FB0005B009B18DB00CB18BB60BB68181CBD4690
:106FC00004B080BD80B586B000AFF860B9607A606B
:106FD0003B601B4B1A68FB68DB00D2183B1C10336C
:106FE000101C191CFFF7C2FF031C7B617B69002B7F
:106FF00001D1042320E07B6901221A707B69BA6801
:107000005A60FFF70FFB021C7B699A607B697A6804
:10701000DA607B693A681A617B693A6A5A61084B9F
:107020001A68FB68DB00D2183B69101C191CFFF7BB
:1070300091FFFFF741FC0023181CBD4606B080BD40
:107040002029002080B584B000AF78603960144BEF
:107050001A687B68DB00D2183B1C0833101C191C13
:10706000FFF784FF031CFB60FB68002B01D10423A6
:1070700012E0FB6802221A70FB683A685A60084BFB
:107080001A687B68DB00D218BB68101C191CFFF75C
:1070900061FFFFF711FC0023181CBD4604B080BD42
:1070A0002029002080B584B000AF7860144B1A68A6
:1070B0007B68DB00D2183B1C0833101C191CFFF73F
:1070C00055FF031CFB60FB68002B01D1042313E078
:1070D000FB6803221A70FB68012252425A60084B77
:1070E0001A687B68DB00D218BB68101C191CFFF7FC
:1070F00031FFFFF7E1FB0023181CBD4604B080BD43
:107100002029002080B500AF104AA0235B00002199
:10711000D1500E4AA2235B000021D1500B4AA42378
:107120005B000021D150094AA6235B000021D15009
:10713000064A80235B000021D150044A82235B0071
:107140000021D150FFF7F0FBBD4680BD001001408B
:1071500080B500AFFFF7B8FEBD4680BD80B586B0F4
:1071600000AFF8607B603B1C0B3319703B1C0A338B
:107170001A707B68181CFFF721F9031C0122534089
:10718000DBB2002B01D0072389E07B68002B01D103
:10719000072384E0FFF72AFA434B3A6A1A60434B0D
:1071A0003A1C0B3212781A70414B7A681A6000232D
:1071B0007B6116E03E4B19687A69131CDB009B1853
:1071C0009B00CB1800221A70394B19687A69131C7E
:1071D000DB009B189B00CB1800221A757B690133DA
:1071E0007B613B1C0B331A787B699A42E2DC3B1CC7
:1071F0000B331A78131CDB009B189B007A68D3189A
:107200007B602C4B03221A702B4B7A681A607B68C8
:1072100018337B6000237B6120E0274B1A687B6971
:10722000DB00D3183B613B6900221A703B690022E6
:107230005A703B693A1C0A3212789A703B697A6834
:107240005A603B1C0A331A78131C5B009B18DB0046
:107250007A68D3187B607B6901337B617B69022B81
:10726000DBDD164B012252421A60154B00221A70C8
:10727000144B00221A701420FEF7BCFF14200321C7
:10728000FEF7D2FF1420FEF76DFFFB68181CFFF716
:107290007DF9FFF7C7F9021C0B4B1A600023181C7D
:1072A000BD4606B080BDC046382900201429002004
:1072B000182900201C290020202900202429002032
:1072C00034290020352900202829002080B586B0E7
:1072D00000AFF8607A603B1C0B330A1C1A70284B15
:1072E0001B68002B01D1082346E07B68002B01D1ED
:1072F000072341E0FB68002B01D107233CE000237A
:107300007B6132E01E4B19687A69131CDB009B1805
:107310009B00CB181B78002B24D1194B19687A6974
:10732000131CDB009B189B00CB1801221A70144B16
:1073300019687A69131CDB009B189B00CB183A1C58
:107340000B3212785A700E4B19687A69131CDB00E5
:107350009B189B00CB187A689A617A69FB681A605F
:10736000002309E07B6901337B61064B1B781A1C03
:107370007B699A42C6DC0423181CBD4606B080BD5A
:10738000182900201429002080B582B000AFFEF734
:10739000F7FF031C012B02D0032B03D005E00023D1
:1073A0007B6005E001237B6002E002237B60C04636
:1073B0007B68181CBD4602B080BDC04690B589B040
:1073C00002AFF860B9607A601D4B1B68002B01D1D9
:1073D000082330E01B4B1B781A1CFB689A4202D929
:1073E000BB68042B01D8072325E0154B1968FA6800
:1073F000131CDB009B189B00CB181B78012B01D0C2
:10740000082318E00E4B1968FA68131CDB009B1860
:107410009B00CB185B78012B01D1BB6800E00023F7
:107420007B61FFF7B1FFF968BA687B697C680094FB
:10743000FFF7C8FD031C181CBD4607B090BDC04631
:10744000182900201429002080B582B000AF786090
:10745000134B1B68002B01D108231DE0114B1B7837
:107460001A1C7B689A4201D8072315E00C4B196857
:107470007A68131CDB009B189B00CB181B78012B30
:1074800001D0082308E0FFF77FFF021C7B68101C77
:10749000191CFFF7D7FD031C181CBD4602B080BDA8
:1074A000182900201429002080B500AF074B1B6865
:1074B000002B01D1082306E0FFF766FF031C181C10
:1074C000FFF7F0FD031C181CBD4680BD18290020E5
:1074D00080B582B000AF7860FFF7A4F8021C7B682B
:1074E0001A600023181CBD4602B080BD80B584B070
:1074F00000AFF860B9607A60FA68BB68101C191CAC
:10750000FFF79CF8021C7B681A600023181CBD461C
:1075100004B080BD70DF7047181CC04671DF704733
:10752000181CC04672DF7047181CC04673DF7047D6
:10753000181CC04674DF7047181CC04675DF7047C2
:10754000181CC04676DF7047181CC04677DF7047AE
:10755000181CC04678DF7047181CC04679DF70479A
:10756000181CC0467ADF7047181CC0467BDF704786
:10757000181CC0467CDF7047181CC0467DDF704772
:10758000181CC0467EDF7047181CC0467FDF70475E
:10759000181CC04680DF7047181CC04681DF70474A
:1075A000181CC04682DF7047181CC04683DF704736
:1075B000181CC04684DF7047181CC046B0DF7047F7
:1075C000181CC046B1DF7047181CC046B2DF7047B8
:1075D000181CC04690DF7047181CC04691DF7047EA
:1075E000181CC04692DF7047181CC04693DF7047D6
:1075F000181CC04694DF7047181CC04695DF7047C2
:10760000181CC04696DF7047181CC04697DF7047AD
:10761000181CC04698DF7047181CC046A0DF704792
:10762000181CC046A1DF7047181CC046A2DF704777
:10763000181CC046A3DF7047181CC046A4DF704763
:10764000181CC046A5DF7047181CC046A6DF70474F
:10765000181CC046A7DF7047181CC046A8DF70473B
:10766000181CC046A9DF7047181CC046AADF704727
:10767000181CC04660DF7047181CC04661DF7047A9
:10768000181CC04662DF7047181CC04663DF704795
:10769000181CC04664DF7047181CC04665DF704781
:1076A000181CC04666DF7047181CC04680B582B003
:1076B00000AF021C3960BB1D1A80BB1D1B88DAB2EB
:1076C0003B681A703B680133BA1D1288120A92B2E5
:1076D000D2B21A700223181CBD4602B080BDC0464B
:1076E00080B588B000AFF860B9607A603B1C1C338D
:1076F0007A6812781A703B1C1C331B7802331F2BDC
:1077000004DCFB685B7802331F2B01DD0C2383E074
:107710003B1C1C331B789AB23B1C1E331D218A1A5A
:107720001A803B1C16333A1C1E3212881A803B1CEE
:107730001C331B780233BA68D2183B1C1633101C5A
:10774000191CFFF71BFF031CBB61BB69002B01D099
:10775000BB6961E0FB681B78022B12D13B1C16331E
:107760001B883A1C1E3212889A420AD33B1C1D33D6
:1077700009221A703B1C1E333A1C163212881A80DA
:107780001AE03B1C1D3308221A70FB685B78002B43
:107790000CD0FB685B783A1C1E3212889A4205D3E3
:1077A000FB685A783B1C1E331A8005E03B1C1E33D5
:1077B0003A1C163212881A803B1C1C331B78BA689C
:1077C000D3183A1C1E321288D2B20132D2B21A70C9
:1077D0003B1C1C333A1C1C32127801321A703B1CC1
:1077E0001C331B78BA68D3183A1C1D3212781A70F1
:1077F0003B1C1C333A1C1C32127801321A707B6815
:107800001A783B1C1E331B88DBB2D318DBB2023361
:10781000DAB27B681A700023181CBD4608B080BD20
:1078200090B585B000AF786039603B681B78043351
:107830001F2B01DD0C2334E03B1C0A33181CFFF71F
:107840008DFE031CFB60FB68002B01D0FB6828E069
:107850003B681B781A1C79688A1803211170013360
:10786000DAB23B681A703B681B781A1C79688A1870
:10787000192111700133DAB23B681A703B681C7829
:107880003B1C0A331A883B681B787968CB18101C9C
:10789000191CFFF70BFF031CE318DAB23B681A70E0
:1078A0000023181CBD4605B090BDC04680B584B00D
:1078B00000AFF8607A603B603B1C0B330A1C1A7007
:1078C000FB685B68002B01D107233CE03B681B7819
:1078D0009A1CFB681B88D3181F2B01DD0C2332E098
:1078E0003B681B781A1C79688A18F9680988C9B23C
:1078F0000131C9B211700133DAB23B681A703B68CA
:107900001B781A1C79688A18391C0B310978117098
:107910000133DAB23B681A703B681B787A68D11879
:10792000FB685A68FB681B88081C111C1A1C02F0B3
:10793000F7FC3B681A78FB681B88DBB2D318DAB215
:107940003B681A700023181CBD4604B080BDC046B9
:1079500080B584B000AFB9607A603B1C0F33021C65
:107960001A707B681B7803331F2B01DD0C2323E087
:107970007B681B781A1CB9688A18022111700133C0
:10798000DAB27B681A707B681B781A1CB9688A188F
:107990000A2111700133DAB27B681A707B681B7898
:1079A0001A1CB9688A18391C0F3109781170013313
:1079B000DAB27B681A700023181CBD4604B080BD83
:1079C00080B58AB000AFF8607B603B1C0B33197048
:1079D0003B1C0A331A703B1C233300221A703B1CD9
:1079E00022333A6B12781A7000237B627FE0FB68C7
:1079F0005A687B6A9B00D3183A1C1432111C1A1C5B
:107A00000423081C111C1A1C02F08AFC3A1C1432B4
:107A10003B1C1A33101C191C0022FFF73BFE031CF1
:107A2000FB61FB69002B01D0FB697CE03B1C1A3336
:107A30001B783A1C0A3212789A4255D13B1C2333E8
:107A40001B78002B01D0002300E002233A1C1B32DC
:107A500013703B6B1B781A1C3B1C1A331B78D21813
:107A60003B1C1B331B78D3181F2B01DD0C235AE062
:107A70003B1C23331B7801225340DBB2002B16D072
:107A80003B6B1B780133DAB23B6B1A703B6B1B7894
:107A90001A1C79688A18391C0B3109781170013366
:107AA000DAB23B6B1A703B1C233301221A703B6B1A
:107AB0001B787A68D318391C14313A1C1A32081C06
:107AC000111C1A1CFFF7E6FD031CFB61FB69002B70
:107AD00001D0FB6927E03B6B1A783B1C1A331B78FB
:107AE000D318DAB23B6B1A707B6A01337B62FB6896
:107AF0001B881A1C7B6A9A4200DD78E73B1C233303
:107B00001B78002B0ED03B1C22331B787A68D318CD
:107B10003A6B11783A1C22321278D243D2B28A18C8
:107B2000D2B21A700023181CBD460AB080BDC046F0
:107B300080B588B002AFF8607B603B1C0B331970D6
:107B40003B1C0A331A70F9683B1C0B331A787B68AC
:107B5000386A0090081C111C0222FFF731FF031C39
:107B60007B617B69002B01D07B6913E0F9683B1CCA
:107B70000A331A787B68386A0090081C111C10229E
:107B8000FFF71EFF031C7B617B69002B01D07B6923
:107B900000E00023181CBD4606B080BD80B582B051
:107BA00000AF78607B681B88052B0AD97B681A8830
:107BB000C8231B019A4206D97B681A88164B9A4241
:107BC00001D0072323E07B685B88052B0AD97B68FB
:107BD0005A88C8231B019A4206D97B685A880E4BE3
:107BE0009A4201D0072312E07B681A880A4B9A4216
:107BF0000CD07B685A88084B9A4207D07B681A8859
:107C00007B685B889A4201D9072300E00023181C97
:107C1000BD4602B080BDC046FFFF000090B587B0F2
:107C200000AFF860B9607A607B681B7806331F2B61
:107C300001D90C2343E0FB68181CFFF7AFFF031CBE
:107C40007B617B69002B01D07B6938E07B681B7806
:107C50001A1CB9688A18052111700133DAB27B68E1
:107C60001A707B681B781A1CB9688A181221117067
:107C70000133DAB27B681A707B681C78FB681A885B
:107C80007B681B78B968CB18101C191CFFF70EFD18
:107C9000031CE318DAB27B681A707B681C78FB68F7
:107CA0005A887B681B78B968CB18101C191CFFF721
:107CB000FDFC031CE318DAB27B681A700023181C61
:107CC000BD4607B090BDC04690B587B000AFF86024
:107CD000B9607A60FB689B88DAB23B1C17330232CA
:107CE0001A707B681B789A1C3B1C17331B78D318BF
:107CF0001F2B01DD0C234BE07B681B781A1CB96835
:107D00008A18391C173109780131C9B21170013351
:107D1000DAB27B681A707B681B781A1CB9688A18FB
:107D2000FF2111700133DAB27B681A707B681C780E
:107D3000FB681A887B681B78B968CB18101C191C63
:107D4000FFF7B4FC031CE318DAB27B681A70FB6817
:107D50009B88002B1BD0FB689B68002B01D107235D
:107D600016E07B681B78BA68D118FB689A68FB68D4
:107D70009B88081C111C1A1C02F0D2FA7B681A7826
:107D8000FB689B88DBB2D318DAB27B681A700023D9
:107D9000181CBD4607B090BD90B589B000AFF86023
:107DA000B9607A60FB681B6B002B01D1072371E07F
:107DB0003B1C1F3300221A7063E0FB68196B3B1CED
:107DC0001F331A78131C5B009B189B00CB18BB61F8
:107DD000BB699B88DAB23B1C173302321A707B688E
:107DE0001B781A1CB9688A18391C173109780131B7
:107DF000C9B211700133DAB27B681A707B681B78E4
:107E00001A1CB9688A18162111700133DAB27B681E
:107E10001A707B681C78BB691A887B681B78B96804
:107E2000CB18101C191CFFF741FC031CE318DAB235
:107E30007B681A70BB699B88002B1BD0BB699B6851
:107E4000002B01D1072325E07B681B78BA68D11885
:107E5000BB699A68BB699B88081C111C1A1C02F03C
:107E60005FFA7B681A78BB699B88DBB2D318DAB2F9
:107E70007B681A703B1C1F333A1C1F321278013288
:107E80001A70FA683423D35C3A1C1F3212789A4273
:107E900093D30023181CBD4609B090BD80B588B0AF
:107EA00002AFF860B9607A6000237B617B680022D2
:107EB0001A70FB681B78002B0ED0F968BA687B68D3
:107EC000081C111C1A1CFFF70BFC031C7B617B694F
:107ED000002B01D07B69B8E0FB689B78002B0CD0AD
:107EE000BA687B68101C191CFFF79AFC031C7B61A5
:107EF0007B69002B01D07B69A7E0FB689B88002B86
:107F00000ED0FB68191DBA687B68081C0121FFF7B9
:107F1000CDFC031C7B617B69002B01D07B6994E065
:107F2000FB68DB68002B11D0FB68DB681B7859B25B
:107F3000BA687B68081C111C1A1CFFF709FD031C9A
:107F40007B617B69002B01D07B697EE0FB681B8A2B
:107F5000002B11D0FB681A1C1032BB6879680091A5
:107F6000101C02210622FFF7E3FD031C7B617B69E5
:107F7000002B01D07B6968E0FB681B8B002B11D0C4
:107F8000FB681A1C1832BB6879680091101C032129
:107F90000722FFF7CDFD031C7B617B69002B01D01D
:107FA0007B6952E0FB681B8C002B11D0FB681A1C0C
:107FB0002032BB6879680091101C14211522FFF74C
:107FC000B7FD031C7B617B69002B01D07B693CE022
:107FD000FB689B6A002B0FD0FB68996ABA687B68C4
:107FE000081C111C1A1CFFF719FE031C7B617B691E
:107FF000002B01D07B6928E0FB68DB6A002B0FD0E7
:10800000FB68D96ABA687B68081C111C1A1CFFF748
:108010005BFE031C7B617B69002B01D07B6914E054
:10802000FA683423D35C002B0ED0F968BA687B68F9
:10803000081C111C1A1CFFF7AFFE031C7B617B6937
:10804000002B01D07B6900E07B69181CBD4606B09F
:1080500080BDC04680B582B000AF78607B689B88E9
:10806000002B0AD07B689B68002B06D07B689B683E
:108070001B781A1C0423134001D1072300E00023BE
:10808000181CBD4602B080BD80B582B000AF7860DC
:108090007B689B88002B01D0072300E00023181C7D
:1080A000BD4602B080BDC04680B596B000AF7860D6
:1080B00039603B1C4B3300221A703B1C4A330022B0
:1080C0001A707B68002B1FD07B68181CFFF7C2FF5B
:1080D000031CFB64FB6C002B01D0FB6C46E0796851
:1080E0003A1C28323B1C4B33081C111C1A1CFFF78E
:1080F000D5FE031CFB64FB6C002B01D0FB6C35E050
:108100003B1C28337B6501E000237B653B68002B2B
:108110001FD03B68181CFFF7B7FF031CFB64FB6C08
:10812000002B01D0FB6C21E039683A1C08323B1C63
:108130004A33081C111C1A1CFFF7B0FE031CFB6419
:10814000FB6C002B01D0FB6C10E03B1C08333B6543
:1081500001E000233B653B1C4B3319783B1C4A3341
:108160001B78786D3A6DFFF7DDF9031C181CBD46CE
:1081700016B080BD70DF7047181CC04671DF7047B5
:10818000181CC04672DF7047181CC04673DF70476A
:10819000181CC04674DF7047181CC04675DF704756
:1081A000181CC04676DF7047181CC04677DF704742
:1081B000181CC04678DF7047181CC04679DF70472E
:1081C000181CC0467ADF7047181CC0467BDF70471A
:1081D000181CC0467CDF7047181CC0467DDF704706
:1081E000181CC0467EDF7047181CC0467FDF7047F2
:1081F000181CC04680DF7047181CC04681DF7047DE
:10820000181CC04682DF7047181CC04683DF7047C9
:10821000181CC04684DF7047181CC046B0DF70478A
:10822000181CC046B1DF7047181CC046B2DF70474B
:10823000181CC04690DF7047181CC04691DF70477D
:10824000181CC04692DF7047181CC04693DF704769
:10825000181CC04694DF7047181CC04695DF704755
:10826000181CC04696DF7047181CC04697DF704741
:10827000181CC04698DF7047181CC046A0DF704726
:10828000181CC046A1DF7047181CC046A2DF70470B
:10829000181CC046A3DF7047181CC046A4DF7047F7
:1082A000181CC046A5DF7047181CC046A6DF7047E3
:1082B000181CC046A7DF7047181CC046A8DF7047CF
:1082C000181CC046A9DF7047181CC046AADF7047BB
:1082D000181CC04660DF7047181CC04661DF70473D
:1082E000181CC04662DF7047181CC04663DF704729
:1082F000181CC04664DF7047181CC04665DF704715
:10830000181CC04666DF7047181CC04680B582B096
:1083100000AF78607B681B781A1C7B6801331B7880
:108320001B029BB213439BB29BB2181CBD4602B00A
:1083300080BDC04690B585B000AF78603C1C0E345F
:108340007B68181CFFF7E2FF031C23803B1C0E33E5
:108350001A88012313405A1E9341DBB2181CBD46F4
:1083600005B090BD80B582B000AF78607B685A8858
:10837000084B1B889A4207D37B685A88054B5B8859
:108380009A4201D8012300E00023181CBD4602B028
:1083900080BDC0465829002080B586B000AF786007
:1083A000294B1A88294B9A424AD0294B1B78013312
:1083B000DAB2274B1A70274B1A7B254B1B789A424F
:1083C00015D3214B1A88244B101C191CFFF7E6FE0D
:1083D000031C7B617B69002B32D01E4B9B69002BF9
:1083E0002ED01C4B9B697A69101C984728E0184BCB
:1083F00000221A70174B1B7C002B13D0124B1B88CA
:10840000181C3B21FFF7CEFE031C3B613B69002B90
:1084100008D0104B9B69002B04D00E4B9B693A6926
:10842000101C98470B4B5B69002B09D03B1C0C338D
:1084300000221A70074B5B693A1C0C32101C9847DB
:10844000BD4606B080BDC04662290020FFFF000087
:10845000602900203C2900205829002090B585B0D3
:1084600000AF7860214B7A6813CA13C313CA13C3D1
:1084700012681A601E4B00221A707B681B68002B62
:1084800015D07B681B681B4A111C1A1C0823081C8A
:10849000111C1A1C01F044FF164B181CFFF792FE2A
:1084A000031CFB60FB68002B0CD0FB6819E0114B30
:1084B000181CFFF78BFE031CFB60FB68002B01D030
:1084C000FB680EE00C4B012252421A800B4B00223B
:1084D0001A700B4A0B4B101C00211A1CFEF7F6FEFB
:1084E000031C181CBD4605B090BDC0463C290020A9
:1084F00070290020582900206229002060290020CE
:108500006C2900209983010080B500AF044B1B68E3
:10851000181CFEF799FF031C181CBD4680BDC04601
:108520006C29002080B584B000AF274B181CFFF7E2
:1085300019FF031C01225340DBB2002B32D0234B26
:108540001B78002B0CD0224B5B69002B36D03B1DD7
:1085500000221A701E4B5B693A1D101C98472DE0D3
:108560001C4B1B78002B03D1194B5B68FB6002E0AE
:10857000174B9B68FB60184B1A68FB68101C191C92
:108580000022FEF71BFF031CBB60BB68002B15D04D
:108590000F4B9B69002B11D00D4B9B69BA68101CC7
:1085A00098470BE00A4B5B69002B07D03B1C01226C
:1085B0001A70074B5B693A1C101C9847034B00224A
:1085C0001A70BD4604B080BD6429002070290020C7
:1085D0003C290020602900206C29002080B582B051
:1085E00000AF78607B689A880B4B1A800B497A68D9
:1085F0000E23D2180823081C111C1A1C01F090FE2F
:10860000074B00221A70074BDB89002B01D1FFF7C3
:1086100089FFBD4602B080BD622900206429002088
:10862000602900203C29002080B584B000AF78602C
:108630000E4B012252421A800D4B00221A700D4B34
:108640001B68181CFEF700FF031CFB60FB68002B77
:1086500008D0094B9B69002B04D0074B9B69FA6833
:10866000101C9847BD4604B080BDC046622900205A
:10867000602900206C2900203C29002080B584B0AE
:1086800000AF78607B680633FB60FB681A88144B88
:10869000DB899A4221D1FB681B8B022B1DD1FB6821
:1086A0001A33181CFFF746FE031C002B02D0FFF7FD
:1086B00039FF12E00B4B1B68181CFEF7C5FE031CAC
:1086C000BB60BB68002B08D0054B9B69002B04D016
:1086D000034B9B69BA68101C9847BD4604B080BD27
:1086E0003C2900206C29002080B582B000AF786062
:1086F00007497A680623D2180823081C111C1A1C83
:1087000001F00EFEFFF70EFFBD4602B080BDC04671
:108710006429002080B582B000AF78607B681B8838
:10872000112B0DD002DC102B05D018E0122B11D02C
:10873000502B0AD013E07B68181CFFF74FFF0FE0A7
:108740007B68181CFFF770FF0AE07B68181CFFF7B6
:1087500095FF05E07B68181CFFF7C6FF00E0C046E8
:10876000BD4602B080BDC04680B584B000AF786021
:10877000204A7B68111C1A1C0823081C111C1A1C97
:1087800001F0CEFD1B4B181CFFF71CFD031CFB600A
:10879000FB68002B29D1184B181CFFF7E3FD031CC5
:1087A00001225340DBB2002B0FD0144B01221A7070
:1087B000134B1A880F4B101C191CFFF7EFFC031CFE
:1087C000FB60104B01221A700FE00F4B5B69002B0E
:1087D00009D03B1C083301221A700B4B5B693A1C11
:1087E0000832101C98470023FB60FB68181CBD462C
:1087F00004B080BD58290020642900207029002081
:1088000062290020602900203C29002070DF704789
:10881000181CC04671DF7047181CC04672DF7047D5
:10882000181CC04673DF7047181CC04674DF7047C1
:10883000181CC04675DF7047181CC04676DF7047AD
:10884000181CC04677DF7047181CC04678DF704799
:10885000181CC04679DF7047181CC0467ADF704785
:10886000181CC0467BDF7047181CC0467CDF704771
:10887000181CC0467DDF7047181CC0467EDF70475D
:10888000181CC0467FDF7047181CC04680DF704749
:10889000181CC04681DF7047181CC04682DF704735
:1088A000181CC04683DF7047181CC04684DF704721
:1088B000181CC046B0DF7047181CC046B1DF7047B7
:1088C000181CC046B2DF7047181CC04690DF7047C6
:1088D000181CC04691DF7047181CC04692DF7047D5
:1088E000181CC04693DF7047181CC04694DF7047C1
:1088F000181CC04695DF7047181CC04696DF7047AD
:10890000181CC04697DF7047181CC04698DF704798
:10891000181CC046A0DF7047181CC046A1DF704776
:10892000181CC046A2DF7047181CC046A3DF704762
:10893000181CC046A4DF7047181CC046A5DF70474E
:10894000181CC046A6DF7047181CC046A7DF70473A
:10895000181CC046A8DF7047181CC046A9DF704726
:10896000181CC046AADF7047181CC04660DF70475D
:10897000181CC04661DF7047181CC04662DF704794
:10898000181CC04663DF7047181CC04664DF704780
:10899000181CC04665DF7047181CC04666DF70476C
:1089A000181CC04680B582B000AF021C3960BB1DE8
:1089B0001A80BB1D1B88DAB23B681A703B68013312
:1089C000BA1D1288120A92B2D2B21A700223181C6F
:1089D000BD4602B080BDC04680B582B000AF7860B1
:1089E0007B681B781A1C7B6801331B781B029BB2C7
:1089F00013439BB29BB2181CBD4602B080BDC0465B
:108A000090B585B000AF78603C1C0E347B68181CB4
:108A1000FFF7E2FF031C23803B1C0E331A8801235F
:108A200013405A1E9341DBB2181CBD4605B090BDE1
:108A300080B582B000AF786039603B689A887B6807
:108A40001A84BD4602B080BD80B582B000AF7860A8
:108A500039607B68012252421A84BD4602B080BD53
:108A600080B584B000AF786039603B681B8B022B07
:108A70001CD17B681B68002B18D03B681A33181C6C
:108A8000FFF7BEFF031C002B04D03B1C0C3300225D
:108A90001A7003E03B1C0C3301221A707B681B68C0
:108AA00079683A1C0C32081C111C9847BD4604B06A
:108AB00080BDC04680B584B000AF786039603B6847
:108AC0000633FB60FB681A887B689B899A4205D154
:108AD0007A68FB68101C191CFFF7C2FFBD4604B082
:108AE00080BDC04680B582B000AF786039603B6819
:108AF0001B88112B0AD0502B0FD0102B14D17A6861
:108B00003B68101C191CFFF793FF0EE07A683B6866
:108B1000101C191CFFF798FF07E07A683B68101CCF
:108B2000191CFFF7C7FF00E0C046BD4602B080BD7C
:108B300080B586B000AFF8607A603B1C0A330A1C2F
:108B40001A803B1C173300221A703B1C163301227B
:108B50001A70FB685B79002B07D03B1C17333A1C5B
:108B60001732127804210A431A70FA682223D35C60
:108B7000002B07D03B1C17333A1C17321278022106
:108B80000A431A703B1C0A331B88FF2B1DD93B1C60
:108B900017333A1C1732127801210A431A703B1C12
:108BA00016331B787A68D3183A1C0A321288101CC4
:108BB000191CFFF7F7FE031C191C3B1C16333A1C4B
:108BC000163212788A181A7010E03B1C16331B7884
:108BD0007A68D3183A1C0A321288D2B21A703B1C37
:108BE00016333A1C1632127801321A70FA684C2386
:108BF000D35A002B07D03B1C17333A1C173212787C
:108C000010210A431A7000233B6136E03B1C1633E7
:108C10001B780233142B15D9FB68191C24313B69CE
:108C200010335B00FA68D3181A1DF8684C23C35A36
:108C3000181C3B69C31A5B00081C111C1A1C01F0AC
:108C400011FC21E0FA683B6910335B00D3189A8865
:108C50003B1C16331B787968CB18101C191CFFF7C6
:108C6000A1FE031C191C3B1C16333A1C1632127849
:108C70008A181A703B6901333B61FA684C23D35A56
:108C80001A1C3B699A42C1DCFA684C23D25A3B69F0
:108C90009BB2D31A99B2FA684C23D1527B683A1C22
:108CA000173212781A703B1C16331B78181CBD46FD
:108CB00006B080BD80B596B000AF786039603B1CCF
:108CC0003833181C0021032201F09AFC3B1C383376
:108CD0001A780F218A4301210A431A703B1C38334A
:108CE00019780F220A4010210A431A703B1C3833AE
:108CF0003A68127B5A703B1C38339A7806218A43B3
:108D000002210A439A703B1C3C33181C00211C2290
:108D100001F076FC3B1C3C331A7810210A431A7090
:108D20003B1C3C3300225A603B1C3C330022DA607F
:108D30003B1C3C3300221A613B1C3C333A1C38324A
:108D40005A613B1C3C3300229A613B1C20330122B8
:108D50009A703B1C2033334A1A803B1C1C33181C6E
:108D60000021032201F04CFC3B1C1C333A68527B6F
:108D70001A703B1C1C333A68927B5A703B1C1C33A4
:108D80009A7806218A4302210A439A703B1C1C33BD
:108D90009A7808218A439A703B1C1C339A781021D8
:108DA0008A439A703B1C1C339A7801210A439A70BB
:108DB0003B1C2433181C0021142201F021FC3B1C15
:108DC00024333A1C20321A603B1C24333A1C1C32D8
:108DD0005A607A683B1C0833101C00211A1CFFF7EC
:108DE000A7FE031C1A1C3B1C24331A813B1C243392
:108DF00000225A813B1C243314229A813B1C2433C9
:108E00003A1C08321A617B68D8887B680833391CA1
:108E10003C313A1C2432FFF785FD031C181CBD466B
:108E200016B080BD372A000080B590B000AF7860E2
:108E300039603B1C2433181C00211C2201F0E0FB8C
:108E40003B1C24331A7802210A431A703B1C24333A
:108E500000225A603B1C24330022DA603B1C24337E
:108E600000221A613B1C243300225A613B1C24332C
:108E700000229A613B1C0C3301229A703B1C0C337C
:108E80002E4A1A803B1C0833181C0021032201F0D3
:108E9000B7FB3B1C08333A68D27B1A703B1C083383
:108EA0003A68127C5A703B1C08339A7806218A4330
:108EB00002210A439A703B1C08339A7808218A439E
:108EC0009A703B1C08339A7810218A439A703B1C95
:108ED00008339A7801218A439A703B1C1033181C7E
:108EE0000021142201F08CFB3B1C10333A1C0C3285
:108EF0001A603B1C10333A1C08325A603B1C10337A
:108F000001221A813B1C103300225A813B1C103372
:108F100001229A813B689A683B1C10331A617B6876
:108F2000D8887B681033391C24313A1C1032FFF783
:108F3000F9FC031C181CBD4610B080BD382A000087
:108F400080B584B000AF786039603B681A687B6890
:108F50001A603B681A797B685A717B680122524219
:108F60001A847A6822230021D1547A684C23002184
:108F7000D1523B1C083301229A703B1C08331A4A19
:108F80001A807B6806333A1C08320120111C1A1C17
:108F9000FFF7C0FC031CFB60FB68002B01D0FB68E3
:108FA0001EE07A683B68101C191CFFF783FE031C47
:108FB000FB60FB68002B01D0FB6811E03B689B68FD
:108FC000002B0CD07A683B68101C191CFFF72CFF93
:108FD000031CFB60FB68002B01D0FB6800E0002352
:108FE000181CBD4604B080BD0D18000080B58EB0C1
:108FF00000AF78600A1CBB1C1A807B681A8C2A4B55
:109000009A424AD07968BB1C1A883B1C1C33081C46
:10901000111C1A1CFFF78CFD031C1A1C3B1C32335D
:109020001A803B1C1A333A1C323212881A803B1CBD
:109030000833181C0021102201F0E2FA7B681A891B
:109040003B1C08331A803B1C083301229A703B1CDE
:10905000083300229A803B1C08333A1C1A329A606B
:109060003B1C08333A1C1C32DA607B681A8C3B1CB0
:109070000833101C191CFFF765FC031C7B637B6B1A
:10908000002B0CD13B1C1A331B883A1C323212883D
:109090009A4204D00C237B6301E008237B637B6B43
:1090A000181CBD460EB080BDFFFF000080B582B029
:1090B00000AF78600A1CBB1C1A807A684C23D35A14
:1090C000142B11D17B681A1C24327B682633101CA8
:1090D000191C262201F0C6F97A684C23D35A013BA9
:1090E00099B27A684C23D1527A684C23D35A1A1C0D
:1090F000786810325200B91C8218098891800133B7
:1091000099B27A684C23D152BD4602B080BDC046A8
:1091100080B582B000AF78607A684C23D35A143B94
:109120005A425341DBB2181CBD4602B080BDC04656
:1091300080B582B000AF78600A1CFB1C1A707B6897
:109140001A8C074B9A4205D17B68FA1C12785A7127
:10915000002300E00823181CBD4602B080BDC046B5
:10916000FFFF000080B582B000AF78600A1CFB1CD6
:109170001A707A68F91C22230978D154BD4602B0CE
:1091800080BDC04680B584B000AF78600A1CFB1C6F
:109190001A703B1C0E3301221A807B68198A3A1C14
:1091A0000E32FB1C081C0021FFF7C4FB031C181C1B
:1091B000BD4604B080BDC04670DF7047181CC04675
:1091C00071DF7047181CC04672DF7047181CC0461C
:1091D00073DF7047181CC04674DF7047181CC04608
:1091E00075DF7047181CC04676DF7047181CC046F4
:1091F00077DF7047181CC04678DF7047181CC046E0
:1092000079DF7047181CC0467ADF7047181CC046CB
:109210007BDF7047181CC0467CDF7047181CC046B7
:109220007DDF7047181CC0467EDF7047181CC046A3
:109230007FDF7047181CC04680DF7047181CC0468F
:1092400081DF7047181CC04682DF7047181CC0467B
:1092500083DF7047181CC04684DF7047181CC04667
:10926000B0DF7047181CC046B1DF7047181CC046FD
:10927000B2DF7047181CC04690DF7047181CC0460C
:1092800091DF7047181CC04692DF7047181CC0461B
:1092900093DF7047181CC04694DF7047181CC04607
:1092A00095DF7047181CC04696DF7047181CC046F3
:1092B00097DF7047181CC04698DF7047181CC046DF
:1092C000A0DF7047181CC046A1DF7047181CC046BD
:1092D000A2DF7047181CC046A3DF7047181CC046A9
:1092E000A4DF7047181CC046A5DF7047181CC04695
:1092F000A6DF7047181CC046A7DF7047181CC04681
:10930000A8DF7047181CC046A9DF7047181CC0466C
:10931000AADF7047181CC04660DF7047181CC046A3
:1093200061DF7047181CC04662DF7047181CC046DA
:1093300063DF7047181CC04664DF7047181CC046C6
:1093400065DF7047181CC04666DF7047181CC046B2
:1093500080B582B000AF78607B681B781A1C7B6890
:1093600001331B781B029BB213439BB29BB2181CA8
:10937000BD4602B080BDC04690B585B000AF7860F4
:109380003C1C0E347B68181CFFF7E2FF031C238093
:109390003B1C0E331A88012313405A1E9341DBB243
:1093A000181CBD4605B090BD80B582B000AF786096
:1093B00039603B689A887B685A82BD4602B080BD9E
:1093C00080B582B000AF786039607B68012252427C
:1093D0005A82BD4602B080BD80B584B000AF7860CF
:1093E00039607B681B7D002B29D03B680633FB600E
:1093F000FB681A887B685B899A4220D1FB681B8BCB
:10940000022B1CD17B681B68002B18D0FB681A3319
:10941000181CFFF7B1FF031C002B04D03B1C0833C2
:1094200000221A7003E03B1C083301221A707B688B
:109430001B6879683A1C0832081C111C9847BD4605
:1094400004B080BD80B582B000AF786039603B6801
:109450001B88112B0AD0502B0FD0102B14D17A68F7
:109460003B68101C191CFFF79FFF0EE07A683B68F1
:10947000101C191CFFF7A4FF07E07A683B68101C5A
:10948000191CFFF7A9FF00E0C046BD4602B080BD31
:1094900090B595B000AF786039607B681B7D002B7C
:1094A00023D03B1C2833181C0021032201F0A8F80C
:1094B0003B1C28331A780F218A4301210A431A7072
:1094C0003B1C283319780F220A4010210A431A70D6
:1094D0003B1C28333A68527B5A703B1C28339A78DD
:1094E00006218A4302210A439A703B1C2C33181C24
:1094F00000211C2201F084F83B1C2C331A78022135
:109500000A431A707B681B7D1A1C01231340D9B2D1
:109510003B1C2C3301220A40120119781020814390
:109520000A431A703B1C2C3300225A603B1C2C331C
:109530000022DA603B1C2C3300221A617B681B7D01
:10954000002B02D03A1C283200E000223B1C2C33B6
:109550005A613B1C2C3300229A613B1C10330122C0
:109560009A703B1C1033784A1A803B1C0C33181C31
:109570000021032201F044F83B1C0C333A68927B33
:109580001A703B1C0C333A68D27B5A703B1C0C336C
:109590009A7806218A4302210A439A703B1C0C33B5
:1095A0009A7808218A439A703B1C0C339A781021D0
:1095B0008A439A703B1C0C339A7801218A439A7033
:1095C0003B681A7B3B1C0B331A703B1C1433181C72
:1095D0000021142201F014F83B1C14333A1C103201
:1095E0001A603B1C14333A1C0C325A603B1C143377
:1095F00001221A813B1C143300225A813B1C143374
:1096000001229A813B1C14333A1C0B321A617B688D
:1096100098887B680633391C2C313A1C1432FFF7CA
:1096200057FE031CFB64FB6C002B01D0FB6C87E036
:109630003B689B68002B00D17EE03B1C103301226D
:109640009A703B1C1033414A1A803B1C0C33181C87
:109650000021032200F0D4FF3B1C0C333A68127C3B
:109660001A703B1C0C335A780F218A435A703B1CEA
:109670000C3359780F220A405A703B1C0C339A78ED
:1096800006218A4302210A439A703B1C0C339A78C4
:1096900008218A439A703B1C0C339A7810218A4324
:1096A0009A703B1C0C339A7801218A439A703B686C
:1096B0009B683C1C4B343A1C0832101C191C00F0EF
:1096C0003BF9031C23703B1C1433181C002114228B
:1096D00000F096FF3B1C14333A1C10321A603B1CFE
:1096E00014333A1C0C325A603B1C4B331B789AB231
:1096F0003B1C14331A813B1C143300225A813B1C3F
:1097000014331A893B1C14339A813B1C14333A1CC2
:1097100008321A617B68D9887B680E333A1C143290
:10972000081C111C1A1CFFF7D7FD031CFB64FB6C03
:10973000002B04D0FB6C03E07B680022DA8100235D
:10974000181CBD4615B090BD192A0000082900005C
:1097500080B584B000AF786039603B681A687B6878
:109760001A607B68012252425A823B681A797B68F0
:109770001A757B68FF221A743B1C083301229A7009
:109780003B1C08330E4A1A807B6804333A1C0832AB
:109790000120111C1A1CFFF793FD031CFB60FB68E2
:1097A000002B01D0FB6806E07A683B68101C191C8E
:1097B000FFF76EFE031C181CBD4604B080BDC046FA
:1097C0000F18000080B588B000AF78600A1CFB1C41
:1097D0001A700023FB617B681A7CFB1C1B789A4281
:1097E0004ED03B1C1A3301221A80FB1C1A787B686E
:1097F0001A747B68D9883A1C1A32FB1C081C002199
:10980000FFF76EFD031CFB61FB69002B01D0FB69B8
:1098100037E07B685A8A1D4B9A422FD07B681B7DAC
:10982000002B2BD03B1C0833181C0021102200F009
:10983000E7FE3B1C1A3301221A807B68DA883B1C46
:1098400008331A803B1C083301229A703B1C0833F2
:1098500000229A803B1C08333A1C1A329A603B1C47
:109860000833FA1CDA607B685A8A3B1C0833101CE8
:10987000191CFFF73DFD031CFB6101E00823FB61A0
:10988000FB69181CBD4608B080BDC046FFFF000044
:1098900070DF7047181CC04671DF7047181CC04647
:1098A00072DF7047181CC04673DF7047181CC04633
:1098B00074DF7047181CC04675DF7047181CC0461F
:1098C00076DF7047181CC04677DF7047181CC0460B
:1098D00078DF7047181CC04679DF7047181CC046F7
:1098E0007ADF7047181CC0467BDF7047181CC046E3
:1098F0007CDF7047181CC0467DDF7047181CC046CF
:109900007EDF7047181CC0467FDF7047181CC046BA
:1099100080DF7047181CC04681DF7047181CC046A6
:1099200082DF7047181CC04683DF7047181CC04692
:1099300084DF7047181CC04680B584B000AF7860E3
:1099400039603B1C0F3300221A703B1C0F331B780D
:109950007A68D3183A6812781A703B1C0F333A1C95
:109960000F32127801321A703B1C0F331B787A6861
:10997000D3183A6852781A703B1C0F333A1C0F32D6
:10998000127801321A703B1C0E333A1C0F321278D7
:10999000023A51424A411A703B1C0E331B78012295
:1099A0005340DBB2002B05D0064B002020211A1CAF
:1099B000FAF79AFD3B1C0F331B78181CBD4604B008
:1099C00080BDC04618AA010080B582B000AF7860A3
:1099D00039603B68181C00F09FFE031C9AB27B683C
:1099E0001A807B683A685A60BD4602B080BDC046A6
:1099F000002934D00123002210B488422CD3012442
:109A00002407A14204D2814202D209011B01F8E7D6
:109A1000E400A14204D2814202D249005B00F8E78F
:109A2000884201D3401A1A434C08A04202D3001BBB
:109A30005C0822438C08A04202D3001B9C082243EE
:109A4000CC08A04202D3001BDC082243002803D02C
:109A50001B0901D00909E3E7101C10BC704700285E
:109A600001D00020C04307B4024802A14018029070
:109A700003BDC046D90000000029F0D003B5FFF7B0
:109A8000B9FF0EBC4243891A1847C046002941D08D
:109A900010B4041C4C40A44601230022002900D528
:109AA0004942002800D5404288422CD30124240793
:109AB000A14204D2814202D209011B01F8E7E4006D
:109AC000A14204D2814202D249005B00F8E78842F9
:109AD00001D3401A1A434C08A04202D3001B5C0871
